{
  "contractName": "CompanyRegistry",
  "abi": [
    {
      "anonymous": false,
      "inputs": [
        {
          "indexed": true,
          "internalType": "address",
          "name": "previousOwner",
          "type": "address"
        },
        {
          "indexed": true,
          "internalType": "address",
          "name": "newOwner",
          "type": "address"
        }
      ],
      "name": "OwnershipTransferred",
      "type": "event"
    },
    {
      "inputs": [],
      "name": "initialized",
      "outputs": [
        {
          "internalType": "bool",
          "name": "",
          "type": "bool"
        }
      ],
      "stateMutability": "view",
      "type": "function"
    },
    {
      "inputs": [],
      "name": "owner",
      "outputs": [
        {
          "internalType": "address",
          "name": "",
          "type": "address"
        }
      ],
      "stateMutability": "view",
      "type": "function"
    },
    {
      "inputs": [],
      "name": "renounceOwnership",
      "outputs": [],
      "stateMutability": "nonpayable",
      "type": "function"
    },
    {
      "inputs": [
        {
          "internalType": "address",
          "name": "newOwner",
          "type": "address"
        }
      ],
      "name": "transferOwnership",
      "outputs": [],
      "stateMutability": "nonpayable",
      "type": "function"
    },
    {
      "inputs": [],
      "name": "initialize",
      "outputs": [],
      "stateMutability": "nonpayable",
      "type": "function"
    },
    {
      "inputs": [
        {
          "internalType": "bytes32",
          "name": "hashedName",
          "type": "bytes32"
        }
      ],
      "name": "companyDocs",
      "outputs": [
        {
          "internalType": "address[]",
          "name": "",
          "type": "address[]"
        }
      ],
      "stateMutability": "view",
      "type": "function"
    },
    {
      "inputs": [
        {
          "internalType": "bytes32",
          "name": "hashedName",
          "type": "bytes32"
        }
      ],
      "name": "getCompanyInfo",
      "outputs": [
        {
          "internalType": "string",
          "name": "",
          "type": "string"
        },
        {
          "internalType": "address[]",
          "name": "",
          "type": "address[]"
        },
        {
          "internalType": "address",
          "name": "",
          "type": "address"
        },
        {
          "internalType": "uint256",
          "name": "",
          "type": "uint256"
        },
        {
          "internalType": "uint256",
          "name": "",
          "type": "uint256"
        },
        {
          "internalType": "uint256",
          "name": "",
          "type": "uint256"
        }
      ],
      "stateMutability": "view",
      "type": "function"
    },
    {
      "inputs": [
        {
          "internalType": "string",
          "name": "companyName",
          "type": "string"
        },
        {
          "internalType": "address[]",
          "name": "documents",
          "type": "address[]"
        },
        {
          "internalType": "address",
          "name": "tokenAddress",
          "type": "address"
        },
        {
          "internalType": "uint256",
          "name": "depositAmount",
          "type": "uint256"
        }
      ],
      "name": "addCompany",
      "outputs": [],
      "stateMutability": "nonpayable",
      "type": "function"
    }
  ],
  "bytecode": "0x608060405234801561001057600080fd5b5060006100216100c560201b60201c565b905080600060016101000a81548173ffffffffffffffffffffffffffffffffffffffff021916908373ffffffffffffffffffffffffffffffffffffffff1602179055508073ffffffffffffffffffffffffffffffffffffffff16600073ffffffffffffffffffffffffffffffffffffffff167f8be0079c531659141344cd1fd0a4f28419497f9722a3daafe3b4186f6b6457e060405160405180910390a3506100cd565b600033905090565b610e0d806100dc6000396000f3fe608060405234801561001057600080fd5b50600436106100885760003560e01c80638da5cb5b1161005b5780638da5cb5b146101b9578063bc12116a146101ed578063c7b3b0d414610270578063f2fde38b1461039157610088565b8063158ef93e1461008d578063354100e7146100ad578063715018a6146101a55780638129fc1c146101af575b600080fd5b6100956103d5565b60405180821515815260200191505060405180910390f35b6101a3600480360360808110156100c357600080fd5b81019080803590602001906401000000008111156100e057600080fd5b8201836020820111156100f257600080fd5b8035906020019184600183028401116401000000008311171561011457600080fd5b90919293919293908035906020019064010000000081111561013557600080fd5b82018360208201111561014757600080fd5b8035906020019184602083028401116401000000008311171561016957600080fd5b9091929391929390803573ffffffffffffffffffffffffffffffffffffffff169060200190929190803590602001909291905050506103e6565b005b6101ad610624565b005b6101b76107ae565b005b6101c16107eb565b604051808273ffffffffffffffffffffffffffffffffffffffff16815260200191505060405180910390f35b6102196004803603602081101561020357600080fd5b8101908080359060200190929190505050610814565b6040518080602001828103825283818151815260200191508051906020019060200280838360005b8381101561025c578082015181840152602081019050610241565b505050509050019250505060405180910390f35b61029c6004803603602081101561028657600080fd5b81019080803590602001909291905050506108b8565b6040518080602001806020018773ffffffffffffffffffffffffffffffffffffffff168152602001868152602001858152602001848152602001838103835289818151815260200191508051906020019080838360005b8381101561030e5780820151818401526020810190506102f3565b50505050905090810190601f16801561033b5780820380516001836020036101000a031916815260200191505b50838103825288818151815260200191508051906020019060200280838360005b8381101561037757808201518184015260208101905061035c565b505050509050019850505050505050505060405180910390f35b6103d3600480360360208110156103a757600080fd5b81019080803573ffffffffffffffffffffffffffffffffffffffff169060200190929190505050610a4e565b005b60008054906101000a900460ff1681565b60008686604051602001808383808284378083019250505092505050604051602081830303815290604052805190602001209050600061042582610814565b5114610499576040517f08c379a00000000000000000000000000000000000000000000000000000000081526004018080602001828103825260158152602001807f416c726561647920616464656420636f6d70616e79000000000000000000000081525060200191505060405180910390fd5b6000600160008381526020019081526020016000209050338160000160006101000a81548173ffffffffffffffffffffffffffffffffffffffff021916908373ffffffffffffffffffffffffffffffffffffffff1602179055508585826002019190610506929190610c66565b50838160050160006101000a81548173ffffffffffffffffffffffffffffffffffffffff021916908373ffffffffffffffffffffffffffffffffffffffff1602179055508281600401819055508787826001019190610566929190610d06565b5042816006018190555060005b86869050811015610619576002600088888481811061058e57fe5b9050602002013573ffffffffffffffffffffffffffffffffffffffff1673ffffffffffffffffffffffffffffffffffffffff1673ffffffffffffffffffffffffffffffffffffffff1681526020019081526020016000208390806001815401808255809150506001900390600052602060002001600090919091909150558080600101915050610573565b505050505050505050565b61062c610c5e565b73ffffffffffffffffffffffffffffffffffffffff16600060019054906101000a900473ffffffffffffffffffffffffffffffffffffffff1673ffffffffffffffffffffffffffffffffffffffff16146106ee576040517f08c379a00000000000000000000000000000000000000000000000000000000081526004018080602001828103825260208152602001807f4f776e61626c653a2063616c6c6572206973206e6f7420746865206f776e657281525060200191505060405180910390fd5b600073ffffffffffffffffffffffffffffffffffffffff16600060019054906101000a900473ffffffffffffffffffffffffffffffffffffffff1673ffffffffffffffffffffffffffffffffffffffff167f8be0079c531659141344cd1fd0a4f28419497f9722a3daafe3b4186f6b6457e060405160405180910390a360008060016101000a81548173ffffffffffffffffffffffffffffffffffffffff021916908373ffffffffffffffffffffffffffffffffffffffff160217905550565b60008054906101000a900460ff16156107c657600080fd5b60016000806101000a81548160ff0219169083151502179055506107e933610a4e565b565b60008060019054906101000a900473ffffffffffffffffffffffffffffffffffffffff16905090565b6060600160008381526020019081526020016000206002018054806020026020016040519081016040528092919081815260200182805480156108ac57602002820191906000526020600020905b8160009054906101000a900473ffffffffffffffffffffffffffffffffffffffff1673ffffffffffffffffffffffffffffffffffffffff1681526020019060010190808311610862575b50505050509050919050565b606080600080600080600060016000898152602001908152602001600020905080600101816002018260050160009054906101000a900473ffffffffffffffffffffffffffffffffffffffff16836004015484600601548560030154858054600181600116156101000203166002900480601f0160208091040260200160405190810160405280929190818152602001828054600181600116156101000203166002900480156109a95780601f1061097e576101008083540402835291602001916109a9565b820191906000526020600020905b81548152906001019060200180831161098c57829003601f168201915b5050505050955084805480602002602001604051908101604052809291908181526020018280548015610a3157602002820191906000526020600020905b8160009054906101000a900473ffffffffffffffffffffffffffffffffffffffff1673ffffffffffffffffffffffffffffffffffffffff16815260200190600101908083116109e7575b505050505094509650965096509650965096505091939550919395565b610a56610c5e565b73ffffffffffffffffffffffffffffffffffffffff16600060019054906101000a900473ffffffffffffffffffffffffffffffffffffffff1673ffffffffffffffffffffffffffffffffffffffff1614610b18576040517f08c379a00000000000000000000000000000000000000000000000000000000081526004018080602001828103825260208152602001807f4f776e61626c653a2063616c6c6572206973206e6f7420746865206f776e657281525060200191505060405180910390fd5b600073ffffffffffffffffffffffffffffffffffffffff168173ffffffffffffffffffffffffffffffffffffffff161415610b9e576040517f08c379a0000000000000000000000000000000000000000000000000000000008152600401808060200182810382526026815260200180610db26026913960400191505060405180910390fd5b8073ffffffffffffffffffffffffffffffffffffffff16600060019054906101000a900473ffffffffffffffffffffffffffffffffffffffff1673ffffffffffffffffffffffffffffffffffffffff167f8be0079c531659141344cd1fd0a4f28419497f9722a3daafe3b4186f6b6457e060405160405180910390a380600060016101000a81548173ffffffffffffffffffffffffffffffffffffffff021916908373ffffffffffffffffffffffffffffffffffffffff16021790555050565b600033905090565b828054828255906000526020600020908101928215610cf5579160200282015b82811115610cf457823573ffffffffffffffffffffffffffffffffffffffff168260006101000a81548173ffffffffffffffffffffffffffffffffffffffff021916908373ffffffffffffffffffffffffffffffffffffffff16021790555091602001919060010190610c86565b5b509050610d029190610d94565b5090565b828054600181600116156101000203166002900490600052602060002090601f016020900481019282610d3c5760008555610d83565b82601f10610d5557803560ff1916838001178555610d83565b82800160010185558215610d83579182015b82811115610d82578235825591602001919060010190610d67565b5b509050610d909190610d94565b5090565b5b80821115610dad576000816000905550600101610d95565b509056fe4f776e61626c653a206e6577206f776e657220697320746865207a65726f2061646472657373a2646970667358221220a7f7b66ae32d60571d012c5e6bc7dccf39cbd57abe496a1839e55a23a815822864736f6c63430007040033",
  "immutableReferences": {},
  "source": "// \"SPDX-License-Identifier: UNLICENSED\"\npragma solidity ^0.7.4;\n\nimport \"@openzeppelin/contracts/access/Ownable.sol\";\n\ncontract Initializable {\n  bool public initialized;\n\n  modifier initializer() {\n    require(!initialized);\n    initialized = true;\n    _;\n  }\n}\n\n\ncontract CompanyRegistry is Initializable, Ownable {\n\n  struct Company {\n    address owner;\n    string companyName;\n    // string certificateOfIncorporation;\n    // string[] taxComplianceCert;\n    // string bankAccountDetails;\n    // string proofofAddress;\n    // string [] certifications;\n    \n    address[] documents;\n    uint256 currentIndex;\n    uint256 depositAmount;\n    address tokenAddress;\n    uint256 timestamp;\n    mapping(address => uint256) balances;\n  }\n  mapping (bytes32 => Company) companies;\n  mapping (address => bytes32[]) companyDocuments;\n\n  function initialize() external initializer {\n    transferOwnership(msg.sender);\n  }\n  \n  function companyDocs(bytes32 hashedName) public view returns (address[] memory) {\n    return companies[hashedName].documents;\n  }\n\n  function getCompanyInfo(bytes32 hashedName) public view returns (string memory, address[] memory, address, uint256, uint256, uint256) {\n    Company storage company = companies[hashedName];\n    return (company.companyName, company.documents, company.tokenAddress, company.depositAmount, company.timestamp, company.currentIndex);\n  }\n\n  function addCompany(string calldata companyName, address[] calldata documents, address tokenAddress, uint256 depositAmount) external {\n    bytes32 hashedName = keccak256(abi.encodePacked(companyName));\n\n    require(companyDocs(hashedName).length == 0, \"Already added company\");\n\n    Company storage company = companies[hashedName];\n\n    company.owner = msg.sender;\n    company.documents = documents;\n    company.tokenAddress = tokenAddress;\n    company.depositAmount = depositAmount;\n    company.companyName = companyName;\n    // solhint-disable-next-line not-rely-on-time\n    company.timestamp = block.timestamp;\n\n    for (uint256 index = 0; index < documents.length; index++) {\n      companyDocuments[documents[index]].push(hashedName);\n    }\n  }\n}\n",
  "sourcePath": "/Users/mac/Documents/Code/apps/firebase/finshield/functions/contracts/contracts/CompanyRegistry.sol",
  "compiler": {
    "name": "solc",
    "version": "0.7.4+commit.3f05b770.Emscripten.clang"
  },
  "schemaVersion": "3.3.2",
  "updatedAt": "2020-11-23T05:42:20.149Z",
  "devdoc": {
    "kind": "dev",
    "methods": {
      "owner()": {
        "details": "Returns the address of the current owner."
      },
      "renounceOwnership()": {
        "details": "Leaves the contract without owner. It will not be possible to call `onlyOwner` functions anymore. Can only be called by the current owner. NOTE: Renouncing ownership will leave the contract without an owner, thereby removing any functionality that is only available to the owner."
      },
      "transferOwnership(address)": {
        "details": "Transfers ownership of the contract to a new account (`newOwner`). Can only be called by the current owner."
      }
    },
    "version": 1
  },
  "userdoc": {
    "kind": "user",
    "methods": {},
    "version": 1
  }
}